{"contracts/VinuEconomy.sol":{"VinuEconomy":{"abi":[{"inputs":[],"stateMutability":"nonpayable","type":"constructor"},{"anonymous":false,"inputs":[{"indexed":true,"internalType":"address","name":"buyer","type":"address"},{"indexed":false,"internalType":"string","name":"item","type":"string"},{"indexed":false,"internalType":"uint256","name":"amount","type":"uint256"}],"name":"ItemBought","type":"event"},{"anonymous":false,"inputs":[{"indexed":false,"internalType":"uint256","name":"amount","type":"uint256"},{"indexed":false,"internalType":"string","name":"period","type":"string"}],"name":"RewardsDistributed","type":"event"},{"inputs":[],"name":"BURN_ADDRESS","outputs":[{"internalType":"address","name":"","type":"address"}],"stateMutability":"view","type":"function"},{"inputs":[{"internalType":"string","name":"item","type":"string"}],"name":"buyItem","outputs":[],"stateMutability":"payable","type":"function"},{"inputs":[{"internalType":"uint256","name":"percentage","type":"uint256"}],"name":"distributeRewards","outputs":[],"stateMutability":"nonpayable","type":"function"},{"inputs":[],"name":"getRewardPool","outputs":[{"internalType":"uint256","name":"","type":"uint256"}],"stateMutability":"view","type":"function"},{"inputs":[],"name":"owner","outputs":[{"internalType":"address","name":"","type":"address"}],"stateMutability":"view","type":"function"},{"inputs":[],"name":"rewardPool","outputs":[{"internalType":"uint256","name":"","type":"uint256"}],"stateMutability":"view","type":"function"}],"evm":{"bytecode":{"linkReferences":{},"object":"608060405234801561001057600080fd5b50336000806101000a81548173ffffffffffffffffffffffffffffffffffffffff021916908373ffffffffffffffffffffffffffffffffffffffff160217905550610af0806100606000396000f3fe6080604052600436106100555760003560e01c806313f199261461005a5780631b8b13a71461007657806359974e38146100a157806366666aa9146100ca5780638da5cb5b146100f5578063fccc281314610120575b600080fd5b610074600480360381019061006f91906105e2565b61014b565b005b34801561008257600080fd5b5061008b61030a565b6040516100989190610644565b60405180910390f35b3480156100ad57600080fd5b506100c860048036038101906100c3919061068b565b610314565b005b3480156100d657600080fd5b506100df610458565b6040516100ec9190610644565b60405180910390f35b34801561010157600080fd5b5061010a61045e565b60405161011791906106f9565b60405180910390f35b34801561012c57600080fd5b50610135610482565b60405161014291906106f9565b60405180910390f35b6000341161018e576040517f08c379a000000000000000000000000000000000000000000000000000000000815260040161018590610771565b60405180910390fd5b6000349050600060646019836101a491906107c0565b6101ae9190610831565b9050600060646032846101c191906107c0565b6101cb9190610831565b9050600060646019856101de91906107c0565b6101e89190610831565b905061dead73ffffffffffffffffffffffffffffffffffffffff166108fc849081150290604051600060405180830381858888f19350505050158015610232573d6000803e3d6000fd5b5060008054906101000a900473ffffffffffffffffffffffffffffffffffffffff1673ffffffffffffffffffffffffffffffffffffffff166108fc839081150290604051600060405180830381858888f19350505050158015610299573d6000803e3d6000fd5b5080600160008282546102ac9190610862565b925050819055503373ffffffffffffffffffffffffffffffffffffffff167f253fcd678c758e0e03dbf3a0243701c7439c306a61158b3c522a81197729901086866040516102fb929190610904565b60405180910390a25050505050565b6000600154905090565b60008054906101000a900473ffffffffffffffffffffffffffffffffffffffff1673ffffffffffffffffffffffffffffffffffffffff163373ffffffffffffffffffffffffffffffffffffffff16146103a2576040517f08c379a000000000000000000000000000000000000000000000000000000000815260040161039990610980565b60405180910390fd5b60648111156103e6576040517f08c379a00000000000000000000000000000000000000000000000000000000081526004016103dd906109ec565b60405180910390fd5b60006064826001546103f891906107c0565b6104029190610831565b905080600160008282546104169190610a0c565b925050819055507fe3c442d494f7839238fa48d18694a40ec47029eb7cc107e2538430bb44c1222e8160405161044c9190610a8c565b60405180910390a15050565b60015481565b60008054906101000a900473ffffffffffffffffffffffffffffffffffffffff1681565b61dead81565b6000604051905090565b600080fd5b600080fd5b600080fd5b600080fd5b6000601f19601f8301169050919050565b7f4e487b7100000000000000000000000000000000000000000000000000000000600052604160045260246000fd5b6104ef826104a6565b810181811067ffffffffffffffff8211171561050e5761050d6104b7565b5b80604052505050565b6000610521610488565b905061052d82826104e6565b919050565b600067ffffffffffffffff82111561054d5761054c6104b7565b5b610556826104a6565b9050602081019050919050565b82818337600083830152505050565b600061058561058084610532565b610517565b9050828152602081018484840111156105a1576105a06104a1565b5b6105ac848285610563565b509392505050565b600082601f8301126105c9576105c861049c565b5b81356105d9848260208601610572565b91505092915050565b6000602082840312156105f8576105f7610492565b5b600082013567ffffffffffffffff81111561061657610615610497565b5b610622848285016105b4565b91505092915050565b6000819050919050565b61063e8161062b565b82525050565b60006020820190506106596000830184610635565b92915050565b6106688161062b565b811461067357600080fd5b50565b6000813590506106858161065f565b92915050565b6000602082840312156106a1576106a0610492565b5b60006106af84828501610676565b91505092915050565b600073ffffffffffffffffffffffffffffffffffffffff82169050919050565b60006106e3826106b8565b9050919050565b6106f3816106d8565b82525050565b600060208201905061070e60008301846106ea565b92915050565b600082825260208201905092915050565b7f4e6f207061796d656e742073656e740000000000000000000000000000000000600082015250565b600061075b600f83610714565b915061076682610725565b602082019050919050565b6000602082019050818103600083015261078a8161074e565b9050919050565b7f4e487b7100000000000000000000000000000000000000000000000000000000600052601160045260246000fd5b60006107cb8261062b565b91506107d68361062b565b92508282026107e48161062b565b915082820484148315176107fb576107fa610791565b5b5092915050565b7f4e487b7100000000000000000000000000000000000000000000000000000000600052601260045260246000fd5b600061083c8261062b565b91506108478361062b565b92508261085757610856610802565b5b828204905092915050565b600061086d8261062b565b91506108788361062b565b92508282019050808211156108905761088f610791565b5b92915050565b600081519050919050565b60005b838110156108bf5780820151818401526020810190506108a4565b60008484015250505050565b60006108d682610896565b6108e08185610714565b93506108f08185602086016108a1565b6108f9816104a6565b840191505092915050565b6000604082019050818103600083015261091e81856108cb565b905061092d6020830184610635565b9392505050565b7f4f6e6c79206f776e657200000000000000000000000000000000000000000000600082015250565b600061096a600a83610714565b915061097582610934565b602082019050919050565b600060208201905081810360008301526109998161095d565b9050919050565b7f496e76616c69642070657263656e746167650000000000000000000000000000600082015250565b60006109d6601283610714565b91506109e1826109a0565b602082019050919050565b60006020820190508181036000830152610a05816109c9565b9050919050565b6000610a178261062b565b9150610a228361062b565b9250828203905081811115610a3a57610a39610791565b5b92915050565b7f4d616e75616c20446973747269627574696f6e00000000000000000000000000600082015250565b6000610a76601383610714565b9150610a8182610a40565b602082019050919050565b6000604082019050610aa16000830184610635565b8181036020830152610ab281610a69565b90509291505056fea26469706673582212204caa2c25c14facb8f17c511e82c3cf34543005d75f96b134d02646635612ae7264736f6c63430008130033","opcodes":"PUSH1 0x80 PUSH1 0x40 MSTORE CALLVALUE DUP1 ISZERO PUSH2 0x10 JUMPI PUSH1 0x0 DUP1 REVERT JUMPDEST POP CALLER PUSH1 0x0 DUP1 PUSH2 0x100 EXP DUP2 SLOAD DUP2 PUSH20 0xFFFFFFFFFFFFFFFFFFFFFFFFFFFFFFFFFFFFFFFF MUL NOT AND SWAP1 DUP4 PUSH20 0xFFFFFFFFFFFFFFFFFFFFFFFFFFFFFFFFFFFFFFFF AND MUL OR SWAP1 SSTORE POP PUSH2 0xAF0 DUP1 PUSH2 0x60 PUSH1 0x0 CODECOPY PUSH1 0x0 RETURN INVALID PUSH1 0x80 PUSH1 0x40 MSTORE PUSH1 0x4 CALLDATASIZE LT PUSH2 0x55 JUMPI PUSH1 0x0 CALLDATALOAD PUSH1 0xE0 SHR DUP1 PUSH4 0x13F19926 EQ PUSH2 0x5A JUMPI DUP1 PUSH4 0x1B8B13A7 EQ PUSH2 0x76 JUMPI DUP1 PUSH4 0x59974E38 EQ PUSH2 0xA1 JUMPI DUP1 PUSH4 0x66666AA9 EQ PUSH2 0xCA JUMPI DUP1 PUSH4 0x8DA5CB5B EQ PUSH2 0xF5 JUMPI DUP1 PUSH4 0xFCCC2813 EQ PUSH2 0x120 JUMPI JUMPDEST PUSH1 0x0 DUP1 REVERT JUMPDEST PUSH2 0x74 PUSH1 0x4 DUP1 CALLDATASIZE SUB DUP2 ADD SWAP1 PUSH2 0x6F SWAP2 SWAP1 PUSH2 0x5E2 JUMP JUMPDEST PUSH2 0x14B JUMP JUMPDEST STOP JUMPDEST CALLVALUE DUP1 ISZERO PUSH2 0x82 JUMPI PUSH1 0x0 DUP1 REVERT JUMPDEST POP PUSH2 0x8B PUSH2 0x30A JUMP JUMPDEST PUSH1 0x40 MLOAD PUSH2 0x98 SWAP2 SWAP1 PUSH2 0x644 JUMP JUMPDEST PUSH1 0x40 MLOAD DUP1 SWAP2 SUB SWAP1 RETURN JUMPDEST CALLVALUE DUP1 ISZERO PUSH2 0xAD JUMPI PUSH1 0x0 DUP1 REVERT JUMPDEST POP PUSH2 0xC8 PUSH1 0x4 DUP1 CALLDATASIZE SUB DUP2 ADD SWAP1 PUSH2 0xC3 SWAP2 SWAP1 PUSH2 0x68B JUMP JUMPDEST PUSH2 0x314 JUMP JUMPDEST STOP JUMPDEST CALLVALUE DUP1 ISZERO PUSH2 0xD6 JUMPI PUSH1 0x0 DUP1 REVERT JUMPDEST POP PUSH2 0xDF PUSH2 0x458 JUMP JUMPDEST PUSH1 0x40 MLOAD PUSH2 0xEC SWAP2 SWAP1 PUSH2 0x644 JUMP JUMPDEST PUSH1 0x40 MLOAD DUP1 SWAP2 SUB SWAP1 RETURN JUMPDEST CALLVALUE DUP1 ISZERO PUSH2 0x101 JUMPI PUSH1 0x0 DUP1 REVERT JUMPDEST POP PUSH2 0x10A PUSH2 0x45E JUMP JUMPDEST PUSH1 0x40 MLOAD PUSH2 0x117 SWAP2 SWAP1 PUSH2 0x6F9 JUMP JUMPDEST PUSH1 0x40 MLOAD DUP1 SWAP2 SUB SWAP1 RETURN JUMPDEST CALLVALUE DUP1 ISZERO PUSH2 0x12C JUMPI PUSH1 0x0 DUP1 REVERT JUMPDEST POP PUSH2 0x135 PUSH2 0x482 JUMP JUMPDEST PUSH1 0x40 MLOAD PUSH2 0x142 SWAP2 SWAP1 PUSH2 0x6F9 JUMP JUMPDEST PUSH1 0x40 MLOAD DUP1 SWAP2 SUB SWAP1 RETURN JUMPDEST PUSH1 0x0 CALLVALUE GT PUSH2 0x18E JUMPI PUSH1 0x40 MLOAD PUSH32 0x8C379A000000000000000000000000000000000000000000000000000000000 DUP2 MSTORE PUSH1 0x4 ADD PUSH2 0x185 SWAP1 PUSH2 0x771 JUMP JUMPDEST PUSH1 0x40 MLOAD DUP1 SWAP2 SUB SWAP1 REVERT JUMPDEST PUSH1 0x0 CALLVALUE SWAP1 POP PUSH1 0x0 PUSH1 0x64 PUSH1 0x19 DUP4 PUSH2 0x1A4 SWAP2 SWAP1 PUSH2 0x7C0 JUMP JUMPDEST PUSH2 0x1AE SWAP2 SWAP1 PUSH2 0x831 JUMP JUMPDEST SWAP1 POP PUSH1 0x0 PUSH1 0x64 PUSH1 0x32 DUP5 PUSH2 0x1C1 SWAP2 SWAP1 PUSH2 0x7C0 JUMP JUMPDEST PUSH2 0x1CB SWAP2 SWAP1 PUSH2 0x831 JUMP JUMPDEST SWAP1 POP PUSH1 0x0 PUSH1 0x64 PUSH1 0x19 DUP6 PUSH2 0x1DE SWAP2 SWAP1 PUSH2 0x7C0 JUMP JUMPDEST PUSH2 0x1E8 SWAP2 SWAP1 PUSH2 0x831 JUMP JUMPDEST SWAP1 POP PUSH2 0xDEAD PUSH20 0xFFFFFFFFFFFFFFFFFFFFFFFFFFFFFFFFFFFFFFFF AND PUSH2 0x8FC DUP5 SWAP1 DUP2 ISZERO MUL SWAP1 PUSH1 0x40 MLOAD PUSH1 0x0 PUSH1 0x40 MLOAD DUP1 DUP4 SUB DUP2 DUP6 DUP9 DUP9 CALL SWAP4 POP POP POP POP ISZERO DUP1 ISZERO PUSH2 0x232 JUMPI RETURNDATASIZE PUSH1 0x0 DUP1 RETURNDATACOPY RETURNDATASIZE PUSH1 0x0 REVERT JUMPDEST POP PUSH1 0x0 DUP1 SLOAD SWAP1 PUSH2 0x100 EXP SWAP1 DIV PUSH20 0xFFFFFFFFFFFFFFFFFFFFFFFFFFFFFFFFFFFFFFFF AND PUSH20 0xFFFFFFFFFFFFFFFFFFFFFFFFFFFFFFFFFFFFFFFF AND PUSH2 0x8FC DUP4 SWAP1 DUP2 ISZERO MUL SWAP1 PUSH1 0x40 MLOAD PUSH1 0x0 PUSH1 0x40 MLOAD DUP1 DUP4 SUB DUP2 DUP6 DUP9 DUP9 CALL SWAP4 POP POP POP POP ISZERO DUP1 ISZERO PUSH2 0x299 JUMPI RETURNDATASIZE PUSH1 0x0 DUP1 RETURNDATACOPY RETURNDATASIZE PUSH1 0x0 REVERT JUMPDEST POP DUP1 PUSH1 0x1 PUSH1 0x0 DUP3 DUP3 SLOAD PUSH2 0x2AC SWAP2 SWAP1 PUSH2 0x862 JUMP JUMPDEST SWAP3 POP POP DUP2 SWAP1 SSTORE POP CALLER PUSH20 0xFFFFFFFFFFFFFFFFFFFFFFFFFFFFFFFFFFFFFFFF AND PUSH32 0x253FCD678C758E0E03DBF3A0243701C7439C306A61158B3C522A811977299010 DUP7 DUP7 PUSH1 0x40 MLOAD PUSH2 0x2FB SWAP3 SWAP2 SWAP1 PUSH2 0x904 JUMP JUMPDEST PUSH1 0x40 MLOAD DUP1 SWAP2 SUB SWAP1 LOG2 POP POP POP POP POP JUMP JUMPDEST PUSH1 0x0 PUSH1 0x1 SLOAD SWAP1 POP SWAP1 JUMP JUMPDEST PUSH1 0x0 DUP1 SLOAD SWAP1 PUSH2 0x100 EXP SWAP1 DIV PUSH20 0xFFFFFFFFFFFFFFFFFFFFFFFFFFFFFFFFFFFFFFFF AND PUSH20 0xFFFFFFFFFFFFFFFFFFFFFFFFFFFFFFFFFFFFFFFF AND CALLER PUSH20 0xFFFFFFFFFFFFFFFFFFFFFFFFFFFFFFFFFFFFFFFF AND EQ PUSH2 0x3A2 JUMPI PUSH1 0x40 MLOAD PUSH32 0x8C379A000000000000000000000000000000000000000000000000000000000 DUP2 MSTORE PUSH1 0x4 ADD PUSH2 0x399 SWAP1 PUSH2 0x980 JUMP JUMPDEST PUSH1 0x40 MLOAD DUP1 SWAP2 SUB SWAP1 REVERT JUMPDEST PUSH1 0x64 DUP2 GT ISZERO PUSH2 0x3E6 JUMPI PUSH1 0x40 MLOAD PUSH32 0x8C379A000000000000000000000000000000000000000000000000000000000 DUP2 MSTORE PUSH1 0x4 ADD PUSH2 0x3DD SWAP1 PUSH2 0x9EC JUMP JUMPDEST PUSH1 0x40 MLOAD DUP1 SWAP2 SUB SWAP1 REVERT JUMPDEST PUSH1 0x0 PUSH1 0x64 DUP3 PUSH1 0x1 SLOAD PUSH2 0x3F8 SWAP2 SWAP1 PUSH2 0x7C0 JUMP JUMPDEST PUSH2 0x402 SWAP2 SWAP1 PUSH2 0x831 JUMP JUMPDEST SWAP1 POP DUP1 PUSH1 0x1 PUSH1 0x0 DUP3 DUP3 SLOAD PUSH2 0x416 SWAP2 SWAP1 PUSH2 0xA0C JUMP JUMPDEST SWAP3 POP POP DUP2 SWAP1 SSTORE POP PUSH32 0xE3C442D494F7839238FA48D18694A40EC47029EB7CC107E2538430BB44C1222E DUP2 PUSH1 0x40 MLOAD PUSH2 0x44C SWAP2 SWAP1 PUSH2 0xA8C JUMP JUMPDEST PUSH1 0x40 MLOAD DUP1 SWAP2 SUB SWAP1 LOG1 POP POP JUMP JUMPDEST PUSH1 0x1 SLOAD DUP2 JUMP JUMPDEST PUSH1 0x0 DUP1 SLOAD SWAP1 PUSH2 0x100 EXP SWAP1 DIV PUSH20 0xFFFFFFFFFFFFFFFFFFFFFFFFFFFFFFFFFFFFFFFF AND DUP2 JUMP JUMPDEST PUSH2 0xDEAD DUP2 JUMP JUMPDEST PUSH1 0x0 PUSH1 0x40 MLOAD SWAP1 POP SWAP1 JUMP JUMPDEST PUSH1 0x0 DUP1 REVERT JUMPDEST PUSH1 0x0 DUP1 REVERT JUMPDEST PUSH1 0x0 DUP1 REVERT JUMPDEST PUSH1 0x0 DUP1 REVERT JUMPDEST PUSH1 0x0 PUSH1 0x1F NOT PUSH1 0x1F DUP4 ADD AND SWAP1 POP SWAP2 SWAP1 POP JUMP JUMPDEST PUSH32 0x4E487B7100000000000000000000000000000000000000000000000000000000 PUSH1 0x0 MSTORE PUSH1 0x41 PUSH1 0x4 MSTORE PUSH1 0x24 PUSH1 0x0 REVERT JUMPDEST PUSH2 0x4EF DUP3 PUSH2 0x4A6 JUMP JUMPDEST DUP2 ADD DUP2 DUP2 LT PUSH8 0xFFFFFFFFFFFFFFFF DUP3 GT OR ISZERO PUSH2 0x50E JUMPI PUSH2 0x50D PUSH2 0x4B7 JUMP JUMPDEST JUMPDEST DUP1 PUSH1 0x40 MSTORE POP POP POP JUMP JUMPDEST PUSH1 0x0 PUSH2 0x521 PUSH2 0x488 JUMP JUMPDEST SWAP1 POP PUSH2 0x52D DUP3 DUP3 PUSH2 0x4E6 JUMP JUMPDEST SWAP2 SWAP1 POP JUMP JUMPDEST PUSH1 0x0 PUSH8 0xFFFFFFFFFFFFFFFF DUP3 GT ISZERO PUSH2 0x54D JUMPI PUSH2 0x54C PUSH2 0x4B7 JUMP JUMPDEST JUMPDEST PUSH2 0x556 DUP3 PUSH2 0x4A6 JUMP JUMPDEST SWAP1 POP PUSH1 0x20 DUP2 ADD SWAP1 POP SWAP2 SWAP1 POP JUMP JUMPDEST DUP3 DUP2 DUP4 CALLDATACOPY PUSH1 0x0 DUP4 DUP4 ADD MSTORE POP POP POP JUMP JUMPDEST PUSH1 0x0 PUSH2 0x585 PUSH2 0x580 DUP5 PUSH2 0x532 JUMP JUMPDEST PUSH2 0x517 JUMP JUMPDEST SWAP1 POP DUP3 DUP2 MSTORE PUSH1 0x20 DUP2 ADD DUP5 DUP5 DUP5 ADD GT ISZERO PUSH2 0x5A1 JUMPI PUSH2 0x5A0 PUSH2 0x4A1 JUMP JUMPDEST JUMPDEST PUSH2 0x5AC DUP5 DUP3 DUP6 PUSH2 0x563 JUMP JUMPDEST POP SWAP4 SWAP3 POP POP POP JUMP JUMPDEST PUSH1 0x0 DUP3 PUSH1 0x1F DUP4 ADD SLT PUSH2 0x5C9 JUMPI PUSH2 0x5C8 PUSH2 0x49C JUMP JUMPDEST JUMPDEST DUP2 CALLDATALOAD PUSH2 0x5D9 DUP5 DUP3 PUSH1 0x20 DUP7 ADD PUSH2 0x572 JUMP JUMPDEST SWAP2 POP POP SWAP3 SWAP2 POP POP JUMP JUMPDEST PUSH1 0x0 PUSH1 0x20 DUP3 DUP5 SUB SLT ISZERO PUSH2 0x5F8 JUMPI PUSH2 0x5F7 PUSH2 0x492 JUMP JUMPDEST JUMPDEST PUSH1 0x0 DUP3 ADD CALLDATALOAD PUSH8 0xFFFFFFFFFFFFFFFF DUP2 GT ISZERO PUSH2 0x616 JUMPI PUSH2 0x615 PUSH2 0x497 JUMP JUMPDEST JUMPDEST PUSH2 0x622 DUP5 DUP3 DUP6 ADD PUSH2 0x5B4 JUMP JUMPDEST SWAP2 POP POP SWAP3 SWAP2 POP POP JUMP JUMPDEST PUSH1 0x0 DUP2 SWAP1 POP SWAP2 SWAP1 POP JUMP JUMPDEST PUSH2 0x63E DUP2 PUSH2 0x62B JUMP JUMPDEST DUP3 MSTORE POP POP JUMP JUMPDEST PUSH1 0x0 PUSH1 0x20 DUP3 ADD SWAP1 POP PUSH2 0x659 PUSH1 0x0 DUP4 ADD DUP5 PUSH2 0x635 JUMP JUMPDEST SWAP3 SWAP2 POP POP JUMP JUMPDEST PUSH2 0x668 DUP2 PUSH2 0x62B JUMP JUMPDEST DUP2 EQ PUSH2 0x673 JUMPI PUSH1 0x0 DUP1 REVERT JUMPDEST POP JUMP JUMPDEST PUSH1 0x0 DUP2 CALLDATALOAD SWAP1 POP PUSH2 0x685 DUP2 PUSH2 0x65F JUMP JUMPDEST SWAP3 SWAP2 POP POP JUMP JUMPDEST PUSH1 0x0 PUSH1 0x20 DUP3 DUP5 SUB SLT ISZERO PUSH2 0x6A1 JUMPI PUSH2 0x6A0 PUSH2 0x492 JUMP JUMPDEST JUMPDEST PUSH1 0x0 PUSH2 0x6AF DUP5 DUP3 DUP6 ADD PUSH2 0x676 JUMP JUMPDEST SWAP2 POP POP SWAP3 SWAP2 POP POP JUMP JUMPDEST PUSH1 0x0 PUSH20 0xFFFFFFFFFFFFFFFFFFFFFFFFFFFFFFFFFFFFFFFF DUP3 AND SWAP1 POP SWAP2 SWAP1 POP JUMP JUMPDEST PUSH1 0x0 PUSH2 0x6E3 DUP3 PUSH2 0x6B8 JUMP JUMPDEST SWAP1 POP SWAP2 SWAP1 POP JUMP JUMPDEST PUSH2 0x6F3 DUP2 PUSH2 0x6D8 JUMP JUMPDEST DUP3 MSTORE POP POP JUMP JUMPDEST PUSH1 0x0 PUSH1 0x20 DUP3 ADD SWAP1 POP PUSH2 0x70E PUSH1 0x0 DUP4 ADD DUP5 PUSH2 0x6EA JUMP JUMPDEST SWAP3 SWAP2 POP POP JUMP JUMPDEST PUSH1 0x0 DUP3 DUP3 MSTORE PUSH1 0x20 DUP3 ADD SWAP1 POP SWAP3 SWAP2 POP POP JUMP JUMPDEST PUSH32 0x4E6F207061796D656E742073656E740000000000000000000000000000000000 PUSH1 0x0 DUP3 ADD MSTORE POP JUMP JUMPDEST PUSH1 0x0 PUSH2 0x75B PUSH1 0xF DUP4 PUSH2 0x714 JUMP JUMPDEST SWAP2 POP PUSH2 0x766 DUP3 PUSH2 0x725 JUMP JUMPDEST PUSH1 0x20 DUP3 ADD SWAP1 POP SWAP2 SWAP1 POP JUMP JUMPDEST PUSH1 0x0 PUSH1 0x20 DUP3 ADD SWAP1 POP DUP2 DUP2 SUB PUSH1 0x0 DUP4 ADD MSTORE PUSH2 0x78A DUP2 PUSH2 0x74E JUMP JUMPDEST SWAP1 POP SWAP2 SWAP1 POP JUMP JUMPDEST PUSH32 0x4E487B7100000000000000000000000000000000000000000000000000000000 PUSH1 0x0 MSTORE PUSH1 0x11 PUSH1 0x4 MSTORE PUSH1 0x24 PUSH1 0x0 REVERT JUMPDEST PUSH1 0x0 PUSH2 0x7CB DUP3 PUSH2 0x62B JUMP JUMPDEST SWAP2 POP PUSH2 0x7D6 DUP4 PUSH2 0x62B JUMP JUMPDEST SWAP3 POP DUP3 DUP3 MUL PUSH2 0x7E4 DUP2 PUSH2 0x62B JUMP JUMPDEST SWAP2 POP DUP3 DUP3 DIV DUP5 EQ DUP4 ISZERO OR PUSH2 0x7FB JUMPI PUSH2 0x7FA PUSH2 0x791 JUMP JUMPDEST JUMPDEST POP SWAP3 SWAP2 POP POP JUMP JUMPDEST PUSH32 0x4E487B7100000000000000000000000000000000000000000000000000000000 PUSH1 0x0 MSTORE PUSH1 0x12 PUSH1 0x4 MSTORE PUSH1 0x24 PUSH1 0x0 REVERT JUMPDEST PUSH1 0x0 PUSH2 0x83C DUP3 PUSH2 0x62B JUMP JUMPDEST SWAP2 POP PUSH2 0x847 DUP4 PUSH2 0x62B JUMP JUMPDEST SWAP3 POP DUP3 PUSH2 0x857 JUMPI PUSH2 0x856 PUSH2 0x802 JUMP JUMPDEST JUMPDEST DUP3 DUP3 DIV SWAP1 POP SWAP3 SWAP2 POP POP JUMP JUMPDEST PUSH1 0x0 PUSH2 0x86D DUP3 PUSH2 0x62B JUMP JUMPDEST SWAP2 POP PUSH2 0x878 DUP4 PUSH2 0x62B JUMP JUMPDEST SWAP3 POP DUP3 DUP3 ADD SWAP1 POP DUP1 DUP3 GT ISZERO PUSH2 0x890 JUMPI PUSH2 0x88F PUSH2 0x791 JUMP JUMPDEST JUMPDEST SWAP3 SWAP2 POP POP JUMP JUMPDEST PUSH1 0x0 DUP2 MLOAD SWAP1 POP SWAP2 SWAP1 POP JUMP JUMPDEST PUSH1 0x0 JUMPDEST DUP4 DUP2 LT ISZERO PUSH2 0x8BF JUMPI DUP1 DUP3 ADD MLOAD DUP2 DUP5 ADD MSTORE PUSH1 0x20 DUP2 ADD SWAP1 POP PUSH2 0x8A4 JUMP JUMPDEST PUSH1 0x0 DUP5 DUP5 ADD MSTORE POP POP POP POP JUMP JUMPDEST PUSH1 0x0 PUSH2 0x8D6 DUP3 PUSH2 0x896 JUMP JUMPDEST PUSH2 0x8E0 DUP2 DUP6 PUSH2 0x714 JUMP JUMPDEST SWAP4 POP PUSH2 0x8F0 DUP2 DUP6 PUSH1 0x20 DUP7 ADD PUSH2 0x8A1 JUMP JUMPDEST PUSH2 0x8F9 DUP2 PUSH2 0x4A6 JUMP JUMPDEST DUP5 ADD SWAP2 POP POP SWAP3 SWAP2 POP POP JUMP JUMPDEST PUSH1 0x0 PUSH1 0x40 DUP3 ADD SWAP1 POP DUP2 DUP2 SUB PUSH1 0x0 DUP4 ADD MSTORE PUSH2 0x91E DUP2 DUP6 PUSH2 0x8CB JUMP JUMPDEST SWAP1 POP PUSH2 0x92D PUSH1 0x20 DUP4 ADD DUP5 PUSH2 0x635 JUMP JUMPDEST SWAP4 SWAP3 POP POP POP JUMP JUMPDEST PUSH32 0x4F6E6C79206F776E657200000000000000000000000000000000000000000000 PUSH1 0x0 DUP3 ADD MSTORE POP JUMP JUMPDEST PUSH1 0x0 PUSH2 0x96A PUSH1 0xA DUP4 PUSH2 0x714 JUMP JUMPDEST SWAP2 POP PUSH2 0x975 DUP3 PUSH2 0x934 JUMP JUMPDEST PUSH1 0x20 DUP3 ADD SWAP1 POP SWAP2 SWAP1 POP JUMP JUMPDEST PUSH1 0x0 PUSH1 0x20 DUP3 ADD SWAP1 POP DUP2 DUP2 SUB PUSH1 0x0 DUP4 ADD MSTORE PUSH2 0x999 DUP2 PUSH2 0x95D JUMP JUMPDEST SWAP1 POP SWAP2 SWAP1 POP JUMP JUMPDEST PUSH32 0x496E76616C69642070657263656E746167650000000000000000000000000000 PUSH1 0x0 DUP3 ADD MSTORE POP JUMP JUMPDEST PUSH1 0x0 PUSH2 0x9D6 PUSH1 0x12 DUP4 PUSH2 0x714 JUMP JUMPDEST SWAP2 POP PUSH2 0x9E1 DUP3 PUSH2 0x9A0 JUMP JUMPDEST PUSH1 0x20 DUP3 ADD SWAP1 POP SWAP2 SWAP1 POP JUMP JUMPDEST PUSH1 0x0 PUSH1 0x20 DUP3 ADD SWAP1 POP DUP2 DUP2 SUB PUSH1 0x0 DUP4 ADD MSTORE PUSH2 0xA05 DUP2 PUSH2 0x9C9 JUMP JUMPDEST SWAP1 POP SWAP2 SWAP1 POP JUMP JUMPDEST PUSH1 0x0 PUSH2 0xA17 DUP3 PUSH2 0x62B JUMP JUMPDEST SWAP2 POP PUSH2 0xA22 DUP4 PUSH2 0x62B JUMP JUMPDEST SWAP3 POP DUP3 DUP3 SUB SWAP1 POP DUP2 DUP2 GT ISZERO PUSH2 0xA3A JUMPI PUSH2 0xA39 PUSH2 0x791 JUMP JUMPDEST JUMPDEST SWAP3 SWAP2 POP POP JUMP JUMPDEST PUSH32 0x4D616E75616C20446973747269627574696F6E00000000000000000000000000 PUSH1 0x0 DUP3 ADD MSTORE POP JUMP JUMPDEST PUSH1 0x0 PUSH2 0xA76 PUSH1 0x13 DUP4 PUSH2 0x714 JUMP JUMPDEST SWAP2 POP PUSH2 0xA81 DUP3 PUSH2 0xA40 JUMP JUMPDEST PUSH1 0x20 DUP3 ADD SWAP1 POP SWAP2 SWAP1 POP JUMP JUMPDEST PUSH1 0x0 PUSH1 0x40 DUP3 ADD SWAP1 POP PUSH2 0xAA1 PUSH1 0x0 DUP4 ADD DUP5 PUSH2 0x635 JUMP JUMPDEST DUP2 DUP2 SUB PUSH1 0x20 DUP4 ADD MSTORE PUSH2 0xAB2 DUP2 PUSH2 0xA69 JUMP JUMPDEST SWAP1 POP SWAP3 SWAP2 POP POP JUMP INVALID LOG2 PUSH5 0x6970667358 0x22 SLT KECCAK256 0x4C 0xAA 0x2C 0x25 0xC1 0x4F 0xAC 0xB8 CALL PUSH29 0x511E82C3CF34543005D75F96B134D02646635612AE7264736F6C634300 ADDMOD SGT STOP CALLER "},"methodIdentifiers":{"BURN_ADDRESS()":"fccc2813","buyItem(string)":"13f19926","distributeRewards(uint256)":"59974e38","getRewardPool()":"1b8b13a7","owner()":"8da5cb5b","rewardPool()":"66666aa9"}}}}}