{
  "_format": "hh-sol-artifact-1",
  "contractName": "VinuEconomy",
  "sourceName": "contracts/VinuEconomy.sol",
  "abi": [
    {
      "inputs": [],
      "stateMutability": "nonpayable",
      "type": "constructor"
    },
    {
      "anonymous": false,
      "inputs": [
        {
          "indexed": true,
          "internalType": "address",
          "name": "buyer",
          "type": "address"
        },
        {
          "indexed": false,
          "internalType": "string",
          "name": "item",
          "type": "string"
        },
        {
          "indexed": false,
          "internalType": "uint256",
          "name": "amount",
          "type": "uint256"
        }
      ],
      "name": "ItemBought",
      "type": "event"
    },
    {
      "anonymous": false,
      "inputs": [
        {
          "indexed": false,
          "internalType": "uint256",
          "name": "amount",
          "type": "uint256"
        },
        {
          "indexed": false,
          "internalType": "string",
          "name": "period",
          "type": "string"
        }
      ],
      "name": "RewardsDistributed",
      "type": "event"
    },
    {
      "inputs": [],
      "name": "BURN_ADDRESS",
      "outputs": [
        {
          "internalType": "address",
          "name": "",
          "type": "address"
        }
      ],
      "stateMutability": "view",
      "type": "function"
    },
    {
      "inputs": [
        {
          "internalType": "string",
          "name": "item",
          "type": "string"
        }
      ],
      "name": "buyItem",
      "outputs": [],
      "stateMutability": "payable",
      "type": "function"
    },
    {
      "inputs": [
        {
          "internalType": "uint256",
          "name": "percentage",
          "type": "uint256"
        }
      ],
      "name": "distributeRewards",
      "outputs": [],
      "stateMutability": "nonpayable",
      "type": "function"
    },
    {
      "inputs": [],
      "name": "getRewardPool",
      "outputs": [
        {
          "internalType": "uint256",
          "name": "",
          "type": "uint256"
        }
      ],
      "stateMutability": "view",
      "type": "function"
    },
    {
      "inputs": [],
      "name": "owner",
      "outputs": [
        {
          "internalType": "address",
          "name": "",
          "type": "address"
        }
      ],
      "stateMutability": "view",
      "type": "function"
    },
    {
      "inputs": [],
      "name": "rewardPool",
      "outputs": [
        {
          "internalType": "uint256",
          "name": "",
          "type": "uint256"
        }
      ],
      "stateMutability": "view",
      "type": "function"
    }
  ],
  "bytecode": "0x608060405234801561001057600080fd5b50336000806101000a81548173ffffffffffffffffffffffffffffffffffffffff021916908373ffffffffffffffffffffffffffffffffffffffff160217905550610af0806100606000396000f3fe6080604052600436106100555760003560e01c806313f199261461005a5780631b8b13a71461007657806359974e38146100a157806366666aa9146100ca5780638da5cb5b146100f5578063fccc281314610120575b600080fd5b610074600480360381019061006f91906105e2565b61014b565b005b34801561008257600080fd5b5061008b61030a565b6040516100989190610644565b60405180910390f35b3480156100ad57600080fd5b506100c860048036038101906100c3919061068b565b610314565b005b3480156100d657600080fd5b506100df610458565b6040516100ec9190610644565b60405180910390f35b34801561010157600080fd5b5061010a61045e565b60405161011791906106f9565b60405180910390f35b34801561012c57600080fd5b50610135610482565b60405161014291906106f9565b60405180910390f35b6000341161018e576040517f08c379a000000000000000000000000000000000000000000000000000000000815260040161018590610771565b60405180910390fd5b6000349050600060646019836101a491906107c0565b6101ae9190610831565b9050600060646032846101c191906107c0565b6101cb9190610831565b9050600060646019856101de91906107c0565b6101e89190610831565b905061dead73ffffffffffffffffffffffffffffffffffffffff166108fc849081150290604051600060405180830381858888f19350505050158015610232573d6000803e3d6000fd5b5060008054906101000a900473ffffffffffffffffffffffffffffffffffffffff1673ffffffffffffffffffffffffffffffffffffffff166108fc839081150290604051600060405180830381858888f19350505050158015610299573d6000803e3d6000fd5b5080600160008282546102ac9190610862565b925050819055503373ffffffffffffffffffffffffffffffffffffffff167f253fcd678c758e0e03dbf3a0243701c7439c306a61158b3c522a81197729901086866040516102fb929190610904565b60405180910390a25050505050565b6000600154905090565b60008054906101000a900473ffffffffffffffffffffffffffffffffffffffff1673ffffffffffffffffffffffffffffffffffffffff163373ffffffffffffffffffffffffffffffffffffffff16146103a2576040517f08c379a000000000000000000000000000000000000000000000000000000000815260040161039990610980565b60405180910390fd5b60648111156103e6576040517f08c379a00000000000000000000000000000000000000000000000000000000081526004016103dd906109ec565b60405180910390fd5b60006064826001546103f891906107c0565b6104029190610831565b905080600160008282546104169190610a0c565b925050819055507fe3c442d494f7839238fa48d18694a40ec47029eb7cc107e2538430bb44c1222e8160405161044c9190610a8c565b60405180910390a15050565b60015481565b60008054906101000a900473ffffffffffffffffffffffffffffffffffffffff1681565b61dead81565b6000604051905090565b600080fd5b600080fd5b600080fd5b600080fd5b6000601f19601f8301169050919050565b7f4e487b7100000000000000000000000000000000000000000000000000000000600052604160045260246000fd5b6104ef826104a6565b810181811067ffffffffffffffff8211171561050e5761050d6104b7565b5b80604052505050565b6000610521610488565b905061052d82826104e6565b919050565b600067ffffffffffffffff82111561054d5761054c6104b7565b5b610556826104a6565b9050602081019050919050565b82818337600083830152505050565b600061058561058084610532565b610517565b9050828152602081018484840111156105a1576105a06104a1565b5b6105ac848285610563565b509392505050565b600082601f8301126105c9576105c861049c565b5b81356105d9848260208601610572565b91505092915050565b6000602082840312156105f8576105f7610492565b5b600082013567ffffffffffffffff81111561061657610615610497565b5b610622848285016105b4565b91505092915050565b6000819050919050565b61063e8161062b565b82525050565b60006020820190506106596000830184610635565b92915050565b6106688161062b565b811461067357600080fd5b50565b6000813590506106858161065f565b92915050565b6000602082840312156106a1576106a0610492565b5b60006106af84828501610676565b91505092915050565b600073ffffffffffffffffffffffffffffffffffffffff82169050919050565b60006106e3826106b8565b9050919050565b6106f3816106d8565b82525050565b600060208201905061070e60008301846106ea565b92915050565b600082825260208201905092915050565b7f4e6f207061796d656e742073656e740000000000000000000000000000000000600082015250565b600061075b600f83610714565b915061076682610725565b602082019050919050565b6000602082019050818103600083015261078a8161074e565b9050919050565b7f4e487b7100000000000000000000000000000000000000000000000000000000600052601160045260246000fd5b60006107cb8261062b565b91506107d68361062b565b92508282026107e48161062b565b915082820484148315176107fb576107fa610791565b5b5092915050565b7f4e487b7100000000000000000000000000000000000000000000000000000000600052601260045260246000fd5b600061083c8261062b565b91506108478361062b565b92508261085757610856610802565b5b828204905092915050565b600061086d8261062b565b91506108788361062b565b92508282019050808211156108905761088f610791565b5b92915050565b600081519050919050565b60005b838110156108bf5780820151818401526020810190506108a4565b60008484015250505050565b60006108d682610896565b6108e08185610714565b93506108f08185602086016108a1565b6108f9816104a6565b840191505092915050565b6000604082019050818103600083015261091e81856108cb565b905061092d6020830184610635565b9392505050565b7f4f6e6c79206f776e657200000000000000000000000000000000000000000000600082015250565b600061096a600a83610714565b915061097582610934565b602082019050919050565b600060208201905081810360008301526109998161095d565b9050919050565b7f496e76616c69642070657263656e746167650000000000000000000000000000600082015250565b60006109d6601283610714565b91506109e1826109a0565b602082019050919050565b60006020820190508181036000830152610a05816109c9565b9050919050565b6000610a178261062b565b9150610a228361062b565b9250828203905081811115610a3a57610a39610791565b5b92915050565b7f4d616e75616c20446973747269627574696f6e00000000000000000000000000600082015250565b6000610a76601383610714565b9150610a8182610a40565b602082019050919050565b6000604082019050610aa16000830184610635565b8181036020830152610ab281610a69565b90509291505056fea26469706673582212204caa2c25c14facb8f17c511e82c3cf34543005d75f96b134d02646635612ae7264736f6c63430008130033",
  "linkReferences": {},
  "deployedLinkReferences": {}
}