{
  "_format": "hh-sol-artifact-1",
  "contractName": "VinuEconomy",
  "sourceName": "contracts/VinuEconomy.sol",
  "abi": [
    {
      "inputs": [],
      "stateMutability": "nonpayable",
      "type": "constructor"
    },
    {
      "anonymous": false,
      "inputs": [
        {
          "indexed": false,
          "internalType": "uint256",
          "name": "amount",
          "type": "uint256"
        },
        {
          "indexed": false,
          "internalType": "uint256",
          "name": "timestamp",
          "type": "uint256"
        }
      ],
      "name": "BurnExecuted",
      "type": "event"
    },
    {
      "anonymous": false,
      "inputs": [
        {
          "indexed": true,
          "internalType": "address",
          "name": "buyer",
          "type": "address"
        },
        {
          "indexed": false,
          "internalType": "string",
          "name": "item",
          "type": "string"
        },
        {
          "indexed": false,
          "internalType": "uint256",
          "name": "amount",
          "type": "uint256"
        }
      ],
      "name": "ItemBought",
      "type": "event"
    },
    {
      "anonymous": false,
      "inputs": [
        {
          "indexed": false,
          "internalType": "uint256",
          "name": "amount",
          "type": "uint256"
        },
        {
          "indexed": false,
          "internalType": "string",
          "name": "period",
          "type": "string"
        }
      ],
      "name": "RewardsDistributed",
      "type": "event"
    },
    {
      "inputs": [],
      "name": "OFFICIAL_BURN_ADDRESS",
      "outputs": [
        {
          "internalType": "address",
          "name": "",
          "type": "address"
        }
      ],
      "stateMutability": "view",
      "type": "function"
    },
    {
      "inputs": [],
      "name": "burnPool",
      "outputs": [
        {
          "internalType": "uint256",
          "name": "",
          "type": "uint256"
        }
      ],
      "stateMutability": "view",
      "type": "function"
    },
    {
      "inputs": [
        {
          "internalType": "string",
          "name": "item",
          "type": "string"
        }
      ],
      "name": "buyItem",
      "outputs": [],
      "stateMutability": "payable",
      "type": "function"
    },
    {
      "inputs": [
        {
          "internalType": "address payable",
          "name": "recipient",
          "type": "address"
        },
        {
          "internalType": "uint256",
          "name": "percentage",
          "type": "uint256"
        }
      ],
      "name": "distributeRewards",
      "outputs": [],
      "stateMutability": "nonpayable",
      "type": "function"
    },
    {
      "inputs": [],
      "name": "getBurnPool",
      "outputs": [
        {
          "internalType": "uint256",
          "name": "",
          "type": "uint256"
        }
      ],
      "stateMutability": "view",
      "type": "function"
    },
    {
      "inputs": [],
      "name": "getRewardPool",
      "outputs": [
        {
          "internalType": "uint256",
          "name": "",
          "type": "uint256"
        }
      ],
      "stateMutability": "view",
      "type": "function"
    },
    {
      "inputs": [],
      "name": "lastBurnTime",
      "outputs": [
        {
          "internalType": "uint256",
          "name": "",
          "type": "uint256"
        }
      ],
      "stateMutability": "view",
      "type": "function"
    },
    {
      "inputs": [],
      "name": "owner",
      "outputs": [
        {
          "internalType": "address",
          "name": "",
          "type": "address"
        }
      ],
      "stateMutability": "view",
      "type": "function"
    },
    {
      "inputs": [],
      "name": "rewardPool",
      "outputs": [
        {
          "internalType": "uint256",
          "name": "",
          "type": "uint256"
        }
      ],
      "stateMutability": "view",
      "type": "function"
    },
    {
      "inputs": [],
      "name": "triggerWeeklyBurn",
      "outputs": [],
      "stateMutability": "nonpayable",
      "type": "function"
    }
  ],
  "bytecode": "0x608060405234801561001057600080fd5b50336000806101000a81548173ffffffffffffffffffffffffffffffffffffffff021916908373ffffffffffffffffffffffffffffffffffffffff160217905550426003819055506111e4806100676000396000f3fe6080604052600436106100915760003560e01c80639c9942b4116100595780639c9942b41461015e578063a54b2a7314610189578063a8031a1d146101b4578063cd7ee295146101dd578063e3067449146101f457610091565b806313f19926146100965780631b8b13a7146100b257806366666aa9146100dd57806380c7d0cb146101085780638da5cb5b14610133575b600080fd5b6100b060048036038101906100ab919061098e565b61021f565b005b3480156100be57600080fd5b506100c76103ac565b6040516100d491906109f0565b60405180910390f35b3480156100e957600080fd5b506100f26103b6565b6040516100ff91906109f0565b60405180910390f35b34801561011457600080fd5b5061011d6103bc565b60405161012a91906109f0565b60405180910390f35b34801561013f57600080fd5b506101486103c6565b6040516101559190610a4c565b60405180910390f35b34801561016a57600080fd5b506101736103ea565b6040516101809190610a4c565b60405180910390f35b34801561019557600080fd5b5061019e6103ef565b6040516101ab91906109f0565b60405180910390f35b3480156101c057600080fd5b506101db60048036038101906101d69190610ad1565b6103f5565b005b3480156101e957600080fd5b506101f2610699565b005b34801561020057600080fd5b5061020961082e565b60405161021691906109f0565b60405180910390f35b60003411610262576040517f08c379a000000000000000000000000000000000000000000000000000000000815260040161025990610b6e565b60405180910390fd5b600034905060006064603c836102789190610bbd565b6102829190610c2e565b9050600060646014846102959190610bbd565b61029f9190610c2e565b905060008183856102b09190610c5f565b6102ba9190610c5f565b905060008054906101000a900473ffffffffffffffffffffffffffffffffffffffff1673ffffffffffffffffffffffffffffffffffffffff166108fc849081150290604051600060405180830381858888f19350505050158015610322573d6000803e3d6000fd5b5081600260008282546103359190610c93565b92505081905550806001600082825461034e9190610c93565b925050819055503373ffffffffffffffffffffffffffffffffffffffff167f253fcd678c758e0e03dbf3a0243701c7439c306a61158b3c522a811977299010868660405161039d929190610d35565b60405180910390a25050505050565b6000600154905090565b60015481565b6000600254905090565b60008054906101000a900473ffffffffffffffffffffffffffffffffffffffff1681565b600081565b60025481565b60008054906101000a900473ffffffffffffffffffffffffffffffffffffffff1673ffffffffffffffffffffffffffffffffffffffff163373ffffffffffffffffffffffffffffffffffffffff1614610483576040517f08c379a000000000000000000000000000000000000000000000000000000000815260040161047a90610db1565b60405180910390fd5b60648111156104c7576040517f08c379a00000000000000000000000000000000000000000000000000000000081526004016104be90610e1d565b60405180910390fd5b600073ffffffffffffffffffffffffffffffffffffffff168273ffffffffffffffffffffffffffffffffffffffff1603610536576040517f08c379a000000000000000000000000000000000000000000000000000000000815260040161052d90610e89565b60405180910390fd5b60006064826001546105489190610bbd565b6105529190610c2e565b905060008111610597576040517f08c379a000000000000000000000000000000000000000000000000000000000815260040161058e90610ef5565b60405180910390fd5b80600160008282546105a99190610c5f565b9250508190555060008373ffffffffffffffffffffffffffffffffffffffff16826040516105d690610f46565b60006040518083038185875af1925050503d8060008114610613576040519150601f19603f3d011682016040523d82523d6000602084013e610618565b606091505b505090508061065c576040517f08c379a000000000000000000000000000000000000000000000000000000000815260040161065390610fa7565b60405180910390fd5b7fe3c442d494f7839238fa48d18694a40ec47029eb7cc107e2538430bb44c1222e8260405161068b9190611013565b60405180910390a150505050565b62093a806003546106aa9190610c93565b4210156106ec576040517f08c379a00000000000000000000000000000000000000000000000000000000081526004016106e39061108d565b60405180910390fd5b6000600254905060008111610736576040517f08c379a000000000000000000000000000000000000000000000000000000000815260040161072d906110f9565b60405180910390fd5b60006002819055504260038190555060008073ffffffffffffffffffffffffffffffffffffffff168260405161076b90610f46565b60006040518083038185875af1925050503d80600081146107a8576040519150601f19603f3d011682016040523d82523d6000602084013e6107ad565b606091505b50509050806107f1576040517f08c379a00000000000000000000000000000000000000000000000000000000081526004016107e890611165565b60405180910390fd5b7f3ed8840592dd71298523ecd4452e3d8c3b9db10dd83a219e7b8934eb1dbdc6cd8242604051610822929190611185565b60405180910390a15050565b60035481565b6000604051905090565b600080fd5b600080fd5b600080fd5b600080fd5b6000601f19601f8301169050919050565b7f4e487b7100000000000000000000000000000000000000000000000000000000600052604160045260246000fd5b61089b82610852565b810181811067ffffffffffffffff821117156108ba576108b9610863565b5b80604052505050565b60006108cd610834565b90506108d98282610892565b919050565b600067ffffffffffffffff8211156108f9576108f8610863565b5b61090282610852565b9050602081019050919050565b82818337600083830152505050565b600061093161092c846108de565b6108c3565b90508281526020810184848401111561094d5761094c61084d565b5b61095884828561090f565b509392505050565b600082601f83011261097557610974610848565b5b813561098584826020860161091e565b91505092915050565b6000602082840312156109a4576109a361083e565b5b600082013567ffffffffffffffff8111156109c2576109c1610843565b5b6109ce84828501610960565b91505092915050565b6000819050919050565b6109ea816109d7565b82525050565b6000602082019050610a0560008301846109e1565b92915050565b600073ffffffffffffffffffffffffffffffffffffffff82169050919050565b6000610a3682610a0b565b9050919050565b610a4681610a2b565b82525050565b6000602082019050610a616000830184610a3d565b92915050565b6000610a7282610a0b565b9050919050565b610a8281610a67565b8114610a8d57600080fd5b50565b600081359050610a9f81610a79565b92915050565b610aae816109d7565b8114610ab957600080fd5b50565b600081359050610acb81610aa5565b92915050565b60008060408385031215610ae857610ae761083e565b5b6000610af685828601610a90565b9250506020610b0785828601610abc565b9150509250929050565b600082825260208201905092915050565b7f4e6f207061796d656e742073656e740000000000000000000000000000000000600082015250565b6000610b58600f83610b11565b9150610b6382610b22565b602082019050919050565b60006020820190508181036000830152610b8781610b4b565b9050919050565b7f4e487b7100000000000000000000000000000000000000000000000000000000600052601160045260246000fd5b6000610bc8826109d7565b9150610bd3836109d7565b9250828202610be1816109d7565b91508282048414831517610bf857610bf7610b8e565b5b5092915050565b7f4e487b7100000000000000000000000000000000000000000000000000000000600052601260045260246000fd5b6000610c39826109d7565b9150610c44836109d7565b925082610c5457610c53610bff565b5b828204905092915050565b6000610c6a826109d7565b9150610c75836109d7565b9250828203905081811115610c8d57610c8c610b8e565b5b92915050565b6000610c9e826109d7565b9150610ca9836109d7565b9250828201905080821115610cc157610cc0610b8e565b5b92915050565b600081519050919050565b60005b83811015610cf0578082015181840152602081019050610cd5565b60008484015250505050565b6000610d0782610cc7565b610d118185610b11565b9350610d21818560208601610cd2565b610d2a81610852565b840191505092915050565b60006040820190508181036000830152610d4f8185610cfc565b9050610d5e60208301846109e1565b9392505050565b7f4f6e6c79206f776e657200000000000000000000000000000000000000000000600082015250565b6000610d9b600a83610b11565b9150610da682610d65565b602082019050919050565b60006020820190508181036000830152610dca81610d8e565b9050919050565b7f496e76616c69642070657263656e746167650000000000000000000000000000600082015250565b6000610e07601283610b11565b9150610e1282610dd1565b602082019050919050565b60006020820190508181036000830152610e3681610dfa565b9050919050565b7f496e76616c696420726563697069656e74000000000000000000000000000000600082015250565b6000610e73601183610b11565b9150610e7e82610e3d565b602082019050919050565b60006020820190508181036000830152610ea281610e66565b9050919050565b7f4e6f207265776172647320746f20646973747269627574650000000000000000600082015250565b6000610edf601883610b11565b9150610eea82610ea9565b602082019050919050565b60006020820190508181036000830152610f0e81610ed2565b9050919050565b600081905092915050565b50565b6000610f30600083610f15565b9150610f3b82610f20565b600082019050919050565b6000610f5182610f23565b9150819050919050565b7f5472616e73666572206661696c65640000000000000000000000000000000000600082015250565b6000610f91600f83610b11565b9150610f9c82610f5b565b602082019050919050565b60006020820190508181036000830152610fc081610f84565b9050919050565b7f4d616e75616c20446973747269627574696f6e00000000000000000000000000600082015250565b6000610ffd601383610b11565b915061100882610fc7565b602082019050919050565b600060408201905061102860008301846109e1565b818103602083015261103981610ff0565b905092915050565b7f4275726e20636f6f6c646f776e20616374697665202831207765656b29000000600082015250565b6000611077601d83610b11565b915061108282611041565b602082019050919050565b600060208201905081810360008301526110a68161106a565b9050919050565b7f4e6f2066756e647320746f206275726e00000000000000000000000000000000600082015250565b60006110e3601083610b11565b91506110ee826110ad565b602082019050919050565b60006020820190508181036000830152611112816110d6565b9050919050565b7f4275726e207472616e73666572206661696c6564000000000000000000000000600082015250565b600061114f601483610b11565b915061115a82611119565b602082019050919050565b6000602082019050818103600083015261117e81611142565b9050919050565b600060408201905061119a60008301856109e1565b6111a760208301846109e1565b939250505056fea2646970667358221220261b1dc19b8003c759d99e1532f447bbd1886b9c8a90dc971c89574ea0311c2e64736f6c63430008130033",
  "linkReferences": {},
  "deployedLinkReferences": {}
}